{
  "_format": "hh-sol-artifact-1",
  "contractName": "Gorillas",
  "sourceName": "contracts/Gorillas.sol",
  "abi": [
    {
      "inputs": [],
      "stateMutability": "nonpayable",
      "type": "constructor"
    },
    {
      "inputs": [
        {
          "internalType": "address",
          "name": "sender",
          "type": "address"
        },
        {
          "internalType": "uint256",
          "name": "balance",
          "type": "uint256"
        },
        {
          "internalType": "uint256",
          "name": "needed",
          "type": "uint256"
        },
        {
          "internalType": "uint256",
          "name": "tokenId",
          "type": "uint256"
        }
      ],
      "name": "ERC1155InsufficientBalance",
      "type": "error"
    },
    {
      "inputs": [
        {
          "internalType": "address",
          "name": "approver",
          "type": "address"
        }
      ],
      "name": "ERC1155InvalidApprover",
      "type": "error"
    },
    {
      "inputs": [
        {
          "internalType": "uint256",
          "name": "idsLength",
          "type": "uint256"
        },
        {
          "internalType": "uint256",
          "name": "valuesLength",
          "type": "uint256"
        }
      ],
      "name": "ERC1155InvalidArrayLength",
      "type": "error"
    },
    {
      "inputs": [
        {
          "internalType": "address",
          "name": "operator",
          "type": "address"
        }
      ],
      "name": "ERC1155InvalidOperator",
      "type": "error"
    },
    {
      "inputs": [
        {
          "internalType": "address",
          "name": "receiver",
          "type": "address"
        }
      ],
      "name": "ERC1155InvalidReceiver",
      "type": "error"
    },
    {
      "inputs": [
        {
          "internalType": "address",
          "name": "sender",
          "type": "address"
        }
      ],
      "name": "ERC1155InvalidSender",
      "type": "error"
    },
    {
      "inputs": [
        {
          "internalType": "address",
          "name": "operator",
          "type": "address"
        },
        {
          "internalType": "address",
          "name": "owner",
          "type": "address"
        }
      ],
      "name": "ERC1155MissingApprovalForAll",
      "type": "error"
    },
    {
      "inputs": [
        {
          "internalType": "address",
          "name": "owner",
          "type": "address"
        }
      ],
      "name": "OwnableInvalidOwner",
      "type": "error"
    },
    {
      "inputs": [
        {
          "internalType": "address",
          "name": "account",
          "type": "address"
        }
      ],
      "name": "OwnableUnauthorizedAccount",
      "type": "error"
    },
    {
      "anonymous": false,
      "inputs": [
        {
          "indexed": true,
          "internalType": "address",
          "name": "account",
          "type": "address"
        },
        {
          "indexed": true,
          "internalType": "address",
          "name": "operator",
          "type": "address"
        },
        {
          "indexed": false,
          "internalType": "bool",
          "name": "approved",
          "type": "bool"
        }
      ],
      "name": "ApprovalForAll",
      "type": "event"
    },
    {
      "anonymous": false,
      "inputs": [
        {
          "indexed": true,
          "internalType": "address",
          "name": "previousOwner",
          "type": "address"
        },
        {
          "indexed": true,
          "internalType": "address",
          "name": "newOwner",
          "type": "address"
        }
      ],
      "name": "OwnershipTransferred",
      "type": "event"
    },
    {
      "anonymous": false,
      "inputs": [
        {
          "indexed": true,
          "internalType": "address",
          "name": "operator",
          "type": "address"
        },
        {
          "indexed": true,
          "internalType": "address",
          "name": "from",
          "type": "address"
        },
        {
          "indexed": true,
          "internalType": "address",
          "name": "to",
          "type": "address"
        },
        {
          "indexed": false,
          "internalType": "uint256[]",
          "name": "ids",
          "type": "uint256[]"
        },
        {
          "indexed": false,
          "internalType": "uint256[]",
          "name": "values",
          "type": "uint256[]"
        }
      ],
      "name": "TransferBatch",
      "type": "event"
    },
    {
      "anonymous": false,
      "inputs": [
        {
          "indexed": true,
          "internalType": "address",
          "name": "operator",
          "type": "address"
        },
        {
          "indexed": true,
          "internalType": "address",
          "name": "from",
          "type": "address"
        },
        {
          "indexed": true,
          "internalType": "address",
          "name": "to",
          "type": "address"
        },
        {
          "indexed": false,
          "internalType": "uint256",
          "name": "id",
          "type": "uint256"
        },
        {
          "indexed": false,
          "internalType": "uint256",
          "name": "value",
          "type": "uint256"
        }
      ],
      "name": "TransferSingle",
      "type": "event"
    },
    {
      "anonymous": false,
      "inputs": [
        {
          "indexed": false,
          "internalType": "string",
          "name": "value",
          "type": "string"
        },
        {
          "indexed": true,
          "internalType": "uint256",
          "name": "id",
          "type": "uint256"
        }
      ],
      "name": "URI",
      "type": "event"
    },
    {
      "inputs": [],
      "name": "ACCEPT",
      "outputs": [
        {
          "internalType": "uint256",
          "name": "",
          "type": "uint256"
        }
      ],
      "stateMutability": "view",
      "type": "function"
    },
    {
      "inputs": [],
      "name": "ALTERNATIVE",
      "outputs": [
        {
          "internalType": "uint256",
          "name": "",
          "type": "uint256"
        }
      ],
      "stateMutability": "view",
      "type": "function"
    },
    {
      "inputs": [],
      "name": "BONK",
      "outputs": [
        {
          "internalType": "uint256",
          "name": "",
          "type": "uint256"
        }
      ],
      "stateMutability": "view",
      "type": "function"
    },
    {
      "inputs": [],
      "name": "CHILL",
      "outputs": [
        {
          "internalType": "uint256",
          "name": "",
          "type": "uint256"
        }
      ],
      "stateMutability": "view",
      "type": "function"
    },
    {
      "inputs": [],
      "name": "DEAD",
      "outputs": [
        {
          "internalType": "uint256",
          "name": "",
          "type": "uint256"
        }
      ],
      "stateMutability": "view",
      "type": "function"
    },
    {
      "inputs": [],
      "name": "SERIOUS",
      "outputs": [
        {
          "internalType": "uint256",
          "name": "",
          "type": "uint256"
        }
      ],
      "stateMutability": "view",
      "type": "function"
    },
    {
      "inputs": [
        {
          "internalType": "address",
          "name": "account",
          "type": "address"
        },
        {
          "internalType": "uint256",
          "name": "id",
          "type": "uint256"
        }
      ],
      "name": "balanceOf",
      "outputs": [
        {
          "internalType": "uint256",
          "name": "",
          "type": "uint256"
        }
      ],
      "stateMutability": "view",
      "type": "function"
    },
    {
      "inputs": [
        {
          "internalType": "address[]",
          "name": "accounts",
          "type": "address[]"
        },
        {
          "internalType": "uint256[]",
          "name": "ids",
          "type": "uint256[]"
        }
      ],
      "name": "balanceOfBatch",
      "outputs": [
        {
          "internalType": "uint256[]",
          "name": "",
          "type": "uint256[]"
        }
      ],
      "stateMutability": "view",
      "type": "function"
    },
    {
      "inputs": [
        {
          "internalType": "address",
          "name": "account",
          "type": "address"
        },
        {
          "internalType": "address",
          "name": "operator",
          "type": "address"
        }
      ],
      "name": "isApprovedForAll",
      "outputs": [
        {
          "internalType": "bool",
          "name": "",
          "type": "bool"
        }
      ],
      "stateMutability": "view",
      "type": "function"
    },
    {
      "inputs": [
        {
          "internalType": "address",
          "name": "to",
          "type": "address"
        },
        {
          "internalType": "uint8",
          "name": "id",
          "type": "uint8"
        }
      ],
      "name": "mintTo",
      "outputs": [],
      "stateMutability": "nonpayable",
      "type": "function"
    },
    {
      "inputs": [],
      "name": "name",
      "outputs": [
        {
          "internalType": "string",
          "name": "",
          "type": "string"
        }
      ],
      "stateMutability": "view",
      "type": "function"
    },
    {
      "inputs": [],
      "name": "owner",
      "outputs": [
        {
          "internalType": "address",
          "name": "",
          "type": "address"
        }
      ],
      "stateMutability": "view",
      "type": "function"
    },
    {
      "inputs": [],
      "name": "renounceOwnership",
      "outputs": [],
      "stateMutability": "nonpayable",
      "type": "function"
    },
    {
      "inputs": [
        {
          "internalType": "address",
          "name": "from",
          "type": "address"
        },
        {
          "internalType": "address",
          "name": "to",
          "type": "address"
        },
        {
          "internalType": "uint256[]",
          "name": "ids",
          "type": "uint256[]"
        },
        {
          "internalType": "uint256[]",
          "name": "values",
          "type": "uint256[]"
        },
        {
          "internalType": "bytes",
          "name": "data",
          "type": "bytes"
        }
      ],
      "name": "safeBatchTransferFrom",
      "outputs": [],
      "stateMutability": "nonpayable",
      "type": "function"
    },
    {
      "inputs": [
        {
          "internalType": "address",
          "name": "from",
          "type": "address"
        },
        {
          "internalType": "address",
          "name": "to",
          "type": "address"
        },
        {
          "internalType": "uint256",
          "name": "id",
          "type": "uint256"
        },
        {
          "internalType": "uint256",
          "name": "value",
          "type": "uint256"
        },
        {
          "internalType": "bytes",
          "name": "data",
          "type": "bytes"
        }
      ],
      "name": "safeTransferFrom",
      "outputs": [],
      "stateMutability": "nonpayable",
      "type": "function"
    },
    {
      "inputs": [
        {
          "internalType": "address",
          "name": "operator",
          "type": "address"
        },
        {
          "internalType": "bool",
          "name": "approved",
          "type": "bool"
        }
      ],
      "name": "setApprovalForAll",
      "outputs": [],
      "stateMutability": "nonpayable",
      "type": "function"
    },
    {
      "inputs": [
        {
          "internalType": "bytes4",
          "name": "interfaceId",
          "type": "bytes4"
        }
      ],
      "name": "supportsInterface",
      "outputs": [
        {
          "internalType": "bool",
          "name": "",
          "type": "bool"
        }
      ],
      "stateMutability": "view",
      "type": "function"
    },
    {
      "inputs": [],
      "name": "symbol",
      "outputs": [
        {
          "internalType": "string",
          "name": "",
          "type": "string"
        }
      ],
      "stateMutability": "view",
      "type": "function"
    },
    {
      "inputs": [
        {
          "internalType": "address",
          "name": "newOwner",
          "type": "address"
        }
      ],
      "name": "transferOwnership",
      "outputs": [],
      "stateMutability": "nonpayable",
      "type": "function"
    },
    {
      "inputs": [
        {
          "internalType": "uint256",
          "name": "",
          "type": "uint256"
        }
      ],
      "name": "uri",
      "outputs": [
        {
          "internalType": "string",
          "name": "",
          "type": "string"
        }
      ],
      "stateMutability": "view",
      "type": "function"
    }
  ],
  "bytecode": "0x60806040526040518060400160405280601081526020017f4f6e652044617920476f72696c6c617300000000000000000000000000000000815250600490816200004a9190620004af565b506040518060400160405280600381526020017f4f4447000000000000000000000000000000000000000000000000000000000081525060059081620000919190620004af565b503480156200009f57600080fd5b50336040518060800160405280604c815260200162002c63604c9139620000cc816200015a60201b60201c565b50600073ffffffffffffffffffffffffffffffffffffffff168173ffffffffffffffffffffffffffffffffffffffff1603620001425760006040517f1e4fbdf7000000000000000000000000000000000000000000000000000000008152600401620001399190620005db565b60405180910390fd5b62000153816200016f60201b60201c565b50620005f8565b80600290816200016b9190620004af565b5050565b6000600360009054906101000a900473ffffffffffffffffffffffffffffffffffffffff16905081600360006101000a81548173ffffffffffffffffffffffffffffffffffffffff021916908373ffffffffffffffffffffffffffffffffffffffff1602179055508173ffffffffffffffffffffffffffffffffffffffff168173ffffffffffffffffffffffffffffffffffffffff167f8be0079c531659141344cd1fd0a4f28419497f9722a3daafe3b4186f6b6457e060405160405180910390a35050565b600081519050919050565b7f4e487b7100000000000000000000000000000000000000000000000000000000600052604160045260246000fd5b7f4e487b7100000000000000000000000000000000000000000000000000000000600052602260045260246000fd5b60006002820490506001821680620002b757607f821691505b602082108103620002cd57620002cc6200026f565b5b50919050565b60008190508160005260206000209050919050565b60006020601f8301049050919050565b600082821b905092915050565b600060088302620003377fffffffffffffffffffffffffffffffffffffffffffffffffffffffffffffffff82620002f8565b620003438683620002f8565b95508019841693508086168417925050509392505050565b6000819050919050565b6000819050919050565b6000620003906200038a62000384846200035b565b62000365565b6200035b565b9050919050565b6000819050919050565b620003ac836200036f565b620003c4620003bb8262000397565b84845462000305565b825550505050565b600090565b620003db620003cc565b620003e8818484620003a1565b505050565b5b81811015620004105762000404600082620003d1565b600181019050620003ee565b5050565b601f8211156200045f576200042981620002d3565b6200043484620002e8565b8101602085101562000444578190505b6200045c6200045385620002e8565b830182620003ed565b50505b505050565b600082821c905092915050565b6000620004846000198460080262000464565b1980831691505092915050565b60006200049f838362000471565b9150826002028217905092915050565b620004ba8262000235565b67ffffffffffffffff811115620004d657620004d562000240565b5b620004e282546200029e565b620004ef82828562000414565b600060209050601f83116001811462000527576000841562000512578287015190505b6200051e858262000491565b8655506200058e565b601f1984166200053786620002d3565b60005b8281101562000561578489015182556001820191506020850194506020810190506200053a565b868310156200058157848901516200057d601f89168262000471565b8355505b6001600288020188555050505b505050505050565b600073ffffffffffffffffffffffffffffffffffffffff82169050919050565b6000620005c38262000596565b9050919050565b620005d581620005b6565b82525050565b6000602082019050620005f26000830184620005ca565b92915050565b61265b80620006086000396000f3fe608060405234801561001057600080fd5b506004361061012b5760003560e01c80638e81a9c4116100ad578063bfbba31711610071578063bfbba31714610320578063e261a3b51461033e578063e985e9c51461035c578063f242432a1461038c578063f2fde38b146103a85761012b565b80638e81a9c41461028c57806395d89b41146102aa578063a22cb465146102c8578063a6234e87146102e4578063af2408ca146103025761012b565b80632eb2c2d6116100f45780632eb2c2d6146101fc5780634e1273f414610218578063699e5f2214610248578063715018a6146102645780638da5cb5b1461026e5761012b565b8062fdd58e1461013057806301ffc9a71461016057806303fd2a451461019057806306fdde03146101ae5780630e89341c146101cc575b600080fd5b61014a600480360381019061014591906119a2565b6103c4565b60405161015791906119f1565b60405180910390f35b61017a60048036038101906101759190611a64565b61041e565b6040516101879190611aac565b60405180910390f35b610198610500565b6040516101a591906119f1565b60405180910390f35b6101b6610505565b6040516101c39190611b57565b60405180910390f35b6101e660048036038101906101e19190611b79565b610593565b6040516101f39190611b57565b60405180910390f35b61021660048036038101906102119190611da3565b610627565b005b610232600480360381019061022d9190611f35565b6106cf565b60405161023f919061206b565b60405180910390f35b610262600480360381019061025d91906120c6565b6107d8565b005b61026c610858565b005b61027661086c565b6040516102839190612115565b60405180910390f35b610294610896565b6040516102a191906119f1565b60405180910390f35b6102b261089b565b6040516102bf9190611b57565b60405180910390f35b6102e260048036038101906102dd919061215c565b610929565b005b6102ec61093f565b6040516102f991906119f1565b60405180910390f35b61030a610944565b60405161031791906119f1565b60405180910390f35b610328610949565b60405161033591906119f1565b60405180910390f35b61034661094e565b60405161035391906119f1565b60405180910390f35b6103766004803603810190610371919061219c565b610953565b6040516103839190611aac565b60405180910390f35b6103a660048036038101906103a191906121dc565b6109e7565b005b6103c260048036038101906103bd9190612273565b610a8f565b005b600080600083815260200190815260200160002060008473ffffffffffffffffffffffffffffffffffffffff1673ffffffffffffffffffffffffffffffffffffffff16815260200190815260200160002054905092915050565b60007fd9b67a26000000000000000000000000000000000000000000000000000000007bffffffffffffffffffffffffffffffffffffffffffffffffffffffff1916827bffffffffffffffffffffffffffffffffffffffffffffffffffffffff191614806104e957507f0e89341c000000000000000000000000000000000000000000000000000000007bffffffffffffffffffffffffffffffffffffffffffffffffffffffff1916827bffffffffffffffffffffffffffffffffffffffffffffffffffffffff1916145b806104f957506104f882610b15565b5b9050919050565b600581565b60048054610512906122cf565b80601f016020809104026020016040519081016040528092919081815260200182805461053e906122cf565b801561058b5780601f106105605761010080835404028352916020019161058b565b820191906000526020600020905b81548152906001019060200180831161056e57829003601f168201915b505050505081565b6060600280546105a2906122cf565b80601f01602080910402602001604051908101604052809291908181526020018280546105ce906122cf565b801561061b5780601f106105f05761010080835404028352916020019161061b565b820191906000526020600020905b8154815290600101906020018083116105fe57829003601f168201915b50505050509050919050565b6000610631610b7f565b90508073ffffffffffffffffffffffffffffffffffffffff168673ffffffffffffffffffffffffffffffffffffffff161415801561067657506106748682610953565b155b156106ba5780866040517fe237d9220000000000000000000000000000000000000000000000000000000081526004016106b1929190612300565b60405180910390fd5b6106c78686868686610b87565b505050505050565b6060815183511461071b57815183516040517f5b059991000000000000000000000000000000000000000000000000000000008152600401610712929190612329565b60405180910390fd5b6000835167ffffffffffffffff81111561073857610737611bab565b5b6040519080825280602002602001820160405280156107665781602001602082028036833780820191505090505b50905060005b84518110156107cd576107a361078b8287610c7f90919063ffffffff16565b61079e8387610c9390919063ffffffff16565b6103c4565b8282815181106107b6576107b5612352565b5b60200260200101818152505080600101905061076c565b508091505092915050565b6107e0610ca7565b60008160ff161180156107f6575060078160ff16105b610835576040517f08c379a000000000000000000000000000000000000000000000000000000000815260040161082c906123cd565b60405180910390fd5b610854828260ff16600160405180602001604052806000815250610d2e565b5050565b610860610ca7565b61086a6000610dc7565b565b6000600360009054906101000a900473ffffffffffffffffffffffffffffffffffffffff16905090565b600381565b600580546108a8906122cf565b80601f01602080910402602001604051908101604052809291908181526020018280546108d4906122cf565b80156109215780601f106108f657610100808354040283529160200191610921565b820191906000526020600020905b81548152906001019060200180831161090457829003601f168201915b505050505081565b61093b610934610b7f565b8383610e8d565b5050565b600681565b600481565b600281565b600181565b6000600160008473ffffffffffffffffffffffffffffffffffffffff1673ffffffffffffffffffffffffffffffffffffffff16815260200190815260200160002060008373ffffffffffffffffffffffffffffffffffffffff1673ffffffffffffffffffffffffffffffffffffffff16815260200190815260200160002060009054906101000a900460ff16905092915050565b60006109f1610b7f565b90508073ffffffffffffffffffffffffffffffffffffffff168673ffffffffffffffffffffffffffffffffffffffff1614158015610a365750610a348682610953565b155b15610a7a5780866040517fe237d922000000000000000000000000000000000000000000000000000000008152600401610a71929190612300565b60405180910390fd5b610a878686868686610ffd565b505050505050565b610a97610ca7565b600073ffffffffffffffffffffffffffffffffffffffff168173ffffffffffffffffffffffffffffffffffffffff1603610b095760006040517f1e4fbdf7000000000000000000000000000000000000000000000000000000008152600401610b009190612115565b60405180910390fd5b610b1281610dc7565b50565b60007f01ffc9a7000000000000000000000000000000000000000000000000000000007bffffffffffffffffffffffffffffffffffffffffffffffffffffffff1916827bffffffffffffffffffffffffffffffffffffffffffffffffffffffff1916149050919050565b600033905090565b600073ffffffffffffffffffffffffffffffffffffffff168473ffffffffffffffffffffffffffffffffffffffff1603610bf95760006040517f57f447ce000000000000000000000000000000000000000000000000000000008152600401610bf09190612115565b60405180910390fd5b600073ffffffffffffffffffffffffffffffffffffffff168573ffffffffffffffffffffffffffffffffffffffff1603610c6b5760006040517f01a83514000000000000000000000000000000000000000000000000000000008152600401610c629190612115565b60405180910390fd5b610c788585858585611108565b5050505050565b600060208202602084010151905092915050565b600060208202602084010151905092915050565b610caf610b7f565b73ffffffffffffffffffffffffffffffffffffffff16610ccd61086c565b73ffffffffffffffffffffffffffffffffffffffff1614610d2c57610cf0610b7f565b6040517f118cdaa7000000000000000000000000000000000000000000000000000000008152600401610d239190612115565b60405180910390fd5b565b600073ffffffffffffffffffffffffffffffffffffffff168473ffffffffffffffffffffffffffffffffffffffff1603610da05760006040517f57f447ce000000000000000000000000000000000000000000000000000000008152600401610d979190612115565b60405180910390fd5b600080610dad85856111ba565b91509150610dbf600087848487611108565b505050505050565b6000600360009054906101000a900473ffffffffffffffffffffffffffffffffffffffff16905081600360006101000a81548173ffffffffffffffffffffffffffffffffffffffff021916908373ffffffffffffffffffffffffffffffffffffffff1602179055508173ffffffffffffffffffffffffffffffffffffffff168173ffffffffffffffffffffffffffffffffffffffff167f8be0079c531659141344cd1fd0a4f28419497f9722a3daafe3b4186f6b6457e060405160405180910390a35050565b600073ffffffffffffffffffffffffffffffffffffffff168273ffffffffffffffffffffffffffffffffffffffff1603610eff5760006040517fced3e100000000000000000000000000000000000000000000000000000000008152600401610ef69190612115565b60405180910390fd5b80600160008573ffffffffffffffffffffffffffffffffffffffff1673ffffffffffffffffffffffffffffffffffffffff16815260200190815260200160002060008473ffffffffffffffffffffffffffffffffffffffff1673ffffffffffffffffffffffffffffffffffffffff16815260200190815260200160002060006101000a81548160ff0219169083151502179055508173ffffffffffffffffffffffffffffffffffffffff168373ffffffffffffffffffffffffffffffffffffffff167f17307eab39ab6107e8899845ad3d59bd9653f200f220920489ca2b5937696c3183604051610ff09190611aac565b60405180910390a3505050565b600073ffffffffffffffffffffffffffffffffffffffff168473ffffffffffffffffffffffffffffffffffffffff160361106f5760006040517f57f447ce0000000000000000000000000000000000000000000000000000000081526004016110669190612115565b60405180910390fd5b600073ffffffffffffffffffffffffffffffffffffffff168573ffffffffffffffffffffffffffffffffffffffff16036110e15760006040517f01a835140000000000000000000000000000000000000000000000000000000081526004016110d89190612115565b60405180910390fd5b6000806110ee85856111ba565b915091506110ff8787848487611108565b50505050505050565b611114858585856111ea565b600073ffffffffffffffffffffffffffffffffffffffff168473ffffffffffffffffffffffffffffffffffffffff16146111b3576000611152610b7f565b905060018451036111a2576000611173600086610c9390919063ffffffff16565b9050600061118b600086610c9390919063ffffffff16565b905061119b838989858589611592565b50506111b1565b6111b0818787878787611746565b5b505b5050505050565b60608060405191506001825283602083015260408201905060018152826020820152604081016040529250929050565b805182511461123457815181516040517f5b05999100000000000000000000000000000000000000000000000000000000815260040161122b929190612329565b60405180910390fd5b600061123e610b7f565b905060005b835181101561144d5760006112618286610c9390919063ffffffff16565b905060006112788386610c9390919063ffffffff16565b9050600073ffffffffffffffffffffffffffffffffffffffff168873ffffffffffffffffffffffffffffffffffffffff16146113a557600080600084815260200190815260200160002060008a73ffffffffffffffffffffffffffffffffffffffff1673ffffffffffffffffffffffffffffffffffffffff1681526020019081526020016000205490508181101561134d57888183856040517f03dee4c500000000000000000000000000000000000000000000000000000000815260040161134494939291906123ed565b60405180910390fd5b81810360008085815260200190815260200160002060008b73ffffffffffffffffffffffffffffffffffffffff1673ffffffffffffffffffffffffffffffffffffffff16815260200190815260200160002081905550505b600073ffffffffffffffffffffffffffffffffffffffff168773ffffffffffffffffffffffffffffffffffffffff1614611440578060008084815260200190815260200160002060008973ffffffffffffffffffffffffffffffffffffffff1673ffffffffffffffffffffffffffffffffffffffff16815260200190815260200160002060008282546114389190612461565b925050819055505b5050806001019050611243565b50600183510361150c57600061146d600085610c9390919063ffffffff16565b90506000611485600085610c9390919063ffffffff16565b90508573ffffffffffffffffffffffffffffffffffffffff168773ffffffffffffffffffffffffffffffffffffffff168473ffffffffffffffffffffffffffffffffffffffff167fc3d58168c5ae7397731d063d5bbf3d657854427343f4c083240f7aacaa2d0f6285856040516114fd929190612329565b60405180910390a4505061158b565b8373ffffffffffffffffffffffffffffffffffffffff168573ffffffffffffffffffffffffffffffffffffffff168273ffffffffffffffffffffffffffffffffffffffff167f4a39dc06d4c0dbc64b70af90fd698a233a518aa5d07e595d983b8c0526c8f7fb8686604051611582929190612495565b60405180910390a45b5050505050565b60008473ffffffffffffffffffffffffffffffffffffffff163b111561173e578373ffffffffffffffffffffffffffffffffffffffff1663f23a6e6187878686866040518663ffffffff1660e01b81526004016115f3959493929190612521565b6020604051808303816000875af192505050801561162f57506040513d601f19601f8201168201806040525081019061162c9190612590565b60015b6116b3573d806000811461165f576040519150601f19603f3d011682016040523d82523d6000602084013e611664565b606091505b5060008151036116ab57846040517f57f447ce0000000000000000000000000000000000000000000000000000000081526004016116a29190612115565b60405180910390fd5b805181602001fd5b63f23a6e6160e01b7bffffffffffffffffffffffffffffffffffffffffffffffffffffffff1916817bffffffffffffffffffffffffffffffffffffffffffffffffffffffff19161461173c57846040517f57f447ce0000000000000000000000000000000000000000000000000000000081526004016117339190612115565b60405180910390fd5b505b505050505050565b60008473ffffffffffffffffffffffffffffffffffffffff163b11156118f2578373ffffffffffffffffffffffffffffffffffffffff1663bc197c8187878686866040518663ffffffff1660e01b81526004016117a79594939291906125bd565b6020604051808303816000875af19250505080156117e357506040513d601f19601f820116820180604052508101906117e09190612590565b60015b611867573d8060008114611813576040519150601f19603f3d011682016040523d82523d6000602084013e611818565b606091505b50600081510361185f57846040517f57f447ce0000000000000000000000000000000000000000000000000000000081526004016118569190612115565b60405180910390fd5b805181602001fd5b63bc197c8160e01b7bffffffffffffffffffffffffffffffffffffffffffffffffffffffff1916817bffffffffffffffffffffffffffffffffffffffffffffffffffffffff1916146118f057846040517f57f447ce0000000000000000000000000000000000000000000000000000000081526004016118e79190612115565b60405180910390fd5b505b505050505050565b6000604051905090565b600080fd5b600080fd5b600073ffffffffffffffffffffffffffffffffffffffff82169050919050565b60006119398261190e565b9050919050565b6119498161192e565b811461195457600080fd5b50565b60008135905061196681611940565b92915050565b6000819050919050565b61197f8161196c565b811461198a57600080fd5b50565b60008135905061199c81611976565b92915050565b600080604083850312156119b9576119b8611904565b5b60006119c785828601611957565b92505060206119d88582860161198d565b9150509250929050565b6119eb8161196c565b82525050565b6000602082019050611a0660008301846119e2565b92915050565b60007fffffffff0000000000000000000000000000000000000000000000000000000082169050919050565b611a4181611a0c565b8114611a4c57600080fd5b50565b600081359050611a5e81611a38565b92915050565b600060208284031215611a7a57611a79611904565b5b6000611a8884828501611a4f565b91505092915050565b60008115159050919050565b611aa681611a91565b82525050565b6000602082019050611ac16000830184611a9d565b92915050565b600081519050919050565b600082825260208201905092915050565b60005b83811015611b01578082015181840152602081019050611ae6565b60008484015250505050565b6000601f19601f8301169050919050565b6000611b2982611ac7565b611b338185611ad2565b9350611b43818560208601611ae3565b611b4c81611b0d565b840191505092915050565b60006020820190508181036000830152611b718184611b1e565b905092915050565b600060208284031215611b8f57611b8e611904565b5b6000611b9d8482850161198d565b91505092915050565b600080fd5b7f4e487b7100000000000000000000000000000000000000000000000000000000600052604160045260246000fd5b611be382611b0d565b810181811067ffffffffffffffff82111715611c0257611c01611bab565b5b80604052505050565b6000611c156118fa565b9050611c218282611bda565b919050565b600067ffffffffffffffff821115611c4157611c40611bab565b5b602082029050602081019050919050565b600080fd5b6000611c6a611c6584611c26565b611c0b565b90508083825260208201905060208402830185811115611c8d57611c8c611c52565b5b835b81811015611cb65780611ca2888261198d565b845260208401935050602081019050611c8f565b5050509392505050565b600082601f830112611cd557611cd4611ba6565b5b8135611ce5848260208601611c57565b91505092915050565b600080fd5b600067ffffffffffffffff821115611d0e57611d0d611bab565b5b611d1782611b0d565b9050602081019050919050565b82818337600083830152505050565b6000611d46611d4184611cf3565b611c0b565b905082815260208101848484011115611d6257611d61611cee565b5b611d6d848285611d24565b509392505050565b600082601f830112611d8a57611d89611ba6565b5b8135611d9a848260208601611d33565b91505092915050565b600080600080600060a08688031215611dbf57611dbe611904565b5b6000611dcd88828901611957565b9550506020611dde88828901611957565b945050604086013567ffffffffffffffff811115611dff57611dfe611909565b5b611e0b88828901611cc0565b935050606086013567ffffffffffffffff811115611e2c57611e2b611909565b5b611e3888828901611cc0565b925050608086013567ffffffffffffffff811115611e5957611e58611909565b5b611e6588828901611d75565b9150509295509295909350565b600067ffffffffffffffff821115611e8d57611e8c611bab565b5b602082029050602081019050919050565b6000611eb1611eac84611e72565b611c0b565b90508083825260208201905060208402830185811115611ed457611ed3611c52565b5b835b81811015611efd5780611ee98882611957565b845260208401935050602081019050611ed6565b5050509392505050565b600082601f830112611f1c57611f1b611ba6565b5b8135611f2c848260208601611e9e565b91505092915050565b60008060408385031215611f4c57611f4b611904565b5b600083013567ffffffffffffffff811115611f6a57611f69611909565b5b611f7685828601611f07565b925050602083013567ffffffffffffffff811115611f9757611f96611909565b5b611fa385828601611cc0565b9150509250929050565b600081519050919050565b600082825260208201905092915050565b6000819050602082019050919050565b611fe28161196c565b82525050565b6000611ff48383611fd9565b60208301905092915050565b6000602082019050919050565b600061201882611fad565b6120228185611fb8565b935061202d83611fc9565b8060005b8381101561205e5781516120458882611fe8565b975061205083612000565b925050600181019050612031565b5085935050505092915050565b60006020820190508181036000830152612085818461200d565b905092915050565b600060ff82169050919050565b6120a38161208d565b81146120ae57600080fd5b50565b6000813590506120c08161209a565b92915050565b600080604083850312156120dd576120dc611904565b5b60006120eb85828601611957565b92505060206120fc858286016120b1565b9150509250929050565b61210f8161192e565b82525050565b600060208201905061212a6000830184612106565b92915050565b61213981611a91565b811461214457600080fd5b50565b60008135905061215681612130565b92915050565b6000806040838503121561217357612172611904565b5b600061218185828601611957565b925050602061219285828601612147565b9150509250929050565b600080604083850312156121b3576121b2611904565b5b60006121c185828601611957565b92505060206121d285828601611957565b9150509250929050565b600080600080600060a086880312156121f8576121f7611904565b5b600061220688828901611957565b955050602061221788828901611957565b94505060406122288882890161198d565b93505060606122398882890161198d565b925050608086013567ffffffffffffffff81111561225a57612259611909565b5b61226688828901611d75565b9150509295509295909350565b60006020828403121561228957612288611904565b5b600061229784828501611957565b91505092915050565b7f4e487b7100000000000000000000000000000000000000000000000000000000600052602260045260246000fd5b600060028204905060018216806122e757607f821691505b6020821081036122fa576122f96122a0565b5b50919050565b60006040820190506123156000830185612106565b6123226020830184612106565b9392505050565b600060408201905061233e60008301856119e2565b61234b60208301846119e2565b9392505050565b7f4e487b7100000000000000000000000000000000000000000000000000000000600052603260045260246000fd5b7f496e636f72726563742049440000000000000000000000000000000000000000600082015250565b60006123b7600c83611ad2565b91506123c282612381565b602082019050919050565b600060208201905081810360008301526123e6816123aa565b9050919050565b60006080820190506124026000830187612106565b61240f60208301866119e2565b61241c60408301856119e2565b61242960608301846119e2565b95945050505050565b7f4e487b7100000000000000000000000000000000000000000000000000000000600052601160045260246000fd5b600061246c8261196c565b91506124778361196c565b925082820190508082111561248f5761248e612432565b5b92915050565b600060408201905081810360008301526124af818561200d565b905081810360208301526124c3818461200d565b90509392505050565b600081519050919050565b600082825260208201905092915050565b60006124f3826124cc565b6124fd81856124d7565b935061250d818560208601611ae3565b61251681611b0d565b840191505092915050565b600060a0820190506125366000830188612106565b6125436020830187612106565b61255060408301866119e2565b61255d60608301856119e2565b818103608083015261256f81846124e8565b90509695505050505050565b60008151905061258a81611a38565b92915050565b6000602082840312156125a6576125a5611904565b5b60006125b48482850161257b565b91505092915050565b600060a0820190506125d26000830188612106565b6125df6020830187612106565b81810360408301526125f1818661200d565b90508181036060830152612605818561200d565b9050818103608083015261261981846124e8565b9050969550505050505056fea26469706673582212203c439fa942c1b1fadb27fec93c5d9ee9d07f22720402b97bc4adbad91049f61f64736f6c63430008170033697066733a2f2f62616679626569676e74376c63357565727465616a666f3575376e68636b72776e736863716f7761366773636c62346137776d77723734706b63342f7b69647d2e6a736f6e",
  "linkReferences": {},
  "deployedLinkReferences": {}
}